:020000040800F2
:10000000080400209D010008F3010008EB0100082E
:10001000EF010008E501000865030008000000008A
:10002000000000000000000000000000F7010008D0
:10003000E901000800000000F5010008E5020008E1
:10004000B7010008B7010008B7010008B7010008B0
:10005000B7010008B7010008B7010008B7010008A0
:10006000B7010008B7010008B7010008B701000890
:10007000B7010008B7010008B7010008B701000880
:10008000B7010008B7010008B7010008B701000870
:10009000B7010008B7010008B7010008B701000860
:1000A000B7010008B7010008B7010008B701000850
:1000B000B7010008B7010008B7010008B701000840
:1000C000B7010008B7010008B7010008B701000830
:1000D000B7010008B7010008B7010008B701000820
:1000E000B7010008B7010008B7010008B701000810
:1000F000B7010008B7010008B7010008B701000800
:10010000B7010008B7010008B7010008B7010008EF
:10011000B7010008B7010008B7010008B7010008DF
:10012000B7010008B7010008B7010008B7010008CF
:10013000B7010008B7010008B7010008B7010008BF
:10014000B7010008B7010008B7010008B7010008AF
:10015000B7010008B7010008B7010008B70100089F
:10016000B7010008B7010008B7010008B70100088F
:10017000B7010008B7010008B7010008B70100087F
:10018000B7010008B7010008DFF80CD000F018F83C
:1001900000480047870300080804002006488047FD
:1001A00006480047FEE7FEE7FEE7FEE7FEE7FEE75C
:1001B000FEE7FEE7FEE7FEE7FD0200088901000812
:1001C000064C074D06E0E06840F0010394E80700A4
:1001D00098471034AC42F6D3FFF7DAFF8C030008DF
:1001E000AC03000800BFFEE7704700BFFEE700BF9A
:1001F000FEE77047704770470CB5002001900090F3
:100200003448006840F480303249086000BF31480B
:10021000006800F4003000900198401C01900098A4
:1002200018B90198B0F5A04FF1D12A48006800F440
:10023000003010B10120009001E0002000900098F3
:10024000012846D123484030006840F080502149C1
:10025000403108602048006840F440401E49086072
:100260001C48083000681B490831086008460068CF
:1002700040F4004008600846006840F4A050086060
:100280001648091F0860081F006840F08070091FA9
:10029000086000BF0F48006800F000700028F9D027
:1002A00040F205700E4908600A480830006820F0E6
:1002B00003000849083108600846006840F0020061
:1002C000086000BF03480830006800F00C000828F0
:1002D000F8D10CBD003802400070004008544007BF
:1002E000003C024004480068002804DD0248006821
:1002F000401E0149086070470000002010B51548F5
:10030000006840F47000134908601348006840F02A
:1003100001001149086000200F49083108600E48AB
:1003200000680E4908400C4908600D48091D086026
:10033000081F006820F48020091F0860002006497B
:100340000C310860FFF758FF4FF000600149803919
:10035000086010BD88ED00E000380240FFFFF6FEA7
:100360001030002400BFFEE702E008C8121F08C1D9
:10037000002AFAD170477047002001E001C1121F26
:10038000002AFBD1704700BFFEE70000AC03000865
:10039000000000200400000068030008B00300080B
:1003A000040000200404000078030008000000009E
:040000050800018965
:00000001FF
